:04000000803114280F
:1000060008007E1480318B1A0B1D12283730200011
:1000160095000B11AF315D278031AE317D267E1004
:10002600090080311628FA308400873085006A304E
:100036008600013087000630AC31792480317F306C
:100046008400AC308500D43086000130870006304D
:10005600AC317924803130308400AD3085002030D9
:100066008600023087002530AC3179248031F801D2
:10007600F901FA0120308400013085002D30AC31C1
:1000860073248031A0308400013085003430AC31D7
:1000960073247E1020009A31852A640022003003E2
:1000A600031DFE2821003E08803AC100803041022F
:1000B600031D5F280A303D02031CFE2822002B0880
:1000C600031DFA2804302F0603196D2805302F0664
:1000D600031D99283103031D792810302100C10022
:1000E6004108F3007230F400B0308128103021004E
:1000F600C1004108F3008430F400B030F500083048
:10010600C2004208F6000430AF31102780311030AB
:100116002100C1004108F3004530F400B030F5007D
:100126000830C2004208F6000630F72802302F06D3
:100136000319A12803302F06031DC9283103031D07
:10014600AD2809302100C1004108F3007230F400E7
:10015600B030B52809302100C1004108F3008430D1
:10016600F400B030F5000830C2004208F600003056
:10017600AF311027803109302100C1004108F3005A
:100186004530F400B030F5000830F3282F03031D86
:10019600FA283103031DD82809302100C10041087F
:1001A600F3009D30F400B030E02809302100C10092
:1001B6004108F300A530F400B030F5000730C20066
:1001C6004208F6000030AF31102780310930210097
:1001D600C1004108F3008D30F400B030F50007305F
:1001E600C2004208F6000130AF31102780312200EC
:1001F600AB01AB0A072922002B03031D0529953104
:10020600972580312200AB016400230057082100A6
:100216003E06031D12292300560821003D06031938
:10022600452E3E082300D70021003D082300D600B6
:1002360022003108031D812921003E08803AC100B1
:1002460080304102031D292964303D02031C5529D3
:1002560005302100BD070030BE3D3E082000A50048
:1002660021003D082000A40044302100C1004108BF
:100276002000A600A131B9218031220046082100C4
:10028600C10041082200BD0047082100C100410805
:100296002200BE0048082100C10041082200BF001C
:1002A6005730D12921003E082000A50021003D0835
:1002B6002000A40044302100C10041082000A6000F
:1002C600A131B921803120302200480603196D2959
:1002D60048086E2930302100C10041082200BD00C7
:1002E6002E302100C10041082200BE002030490600
:1002F60003197F2949084E2930304E2921003E082E
:10030600803AC10083304102031D8B29E7303D024C
:100316000318AC2921003E082000A50021003D0855
:100326002000A40044302100C10041082000A6009E
:10033600A131B9218031220047082100C1004108BE
:100346002200BD0048082100C10041082200BE006D
:100356007D2921003E082000A50021003D0820003F
:10036600A40044302100C10041082000A600A131AC
:10037600B9218031220046082100C100410822002F
:10038600BD0047082100C10041082200BE00480800
:100396002100C10041082200BF0049082100C10018
:1003A60041082200C00004302F060319DE2905305B
:1003B6002F06031DE0294030E4292F080319F429EC
:1003C60004302100C1004108F3003D30F400013043
:1003D600F5000430C2004208F6000030AF311027A5
:1003E6008031640022002B03031D452E3C08031DAB
:1003F600072A7A08031D072A210040082200CC009C
:1004060021003F082200CB0032082100C100C201B2
:10041600C301C40144082000AF00210043082000A6
:10042600AE00210042082000AD0021004108200056
:10043600AC000130A3314F2380312F08EB002E088A
:10044600EA002D08E9002C08E80022004B082000ED
:10045600AC0022004C082000AD00890D893B8909BB
:10046600AE00AF000130A3314F2380312F08BD000D
:100476002E08BC002D08BB002C08BA004230C10073
:10048600C830C0000030BF000030BE009E31872655
:1004960080313D08D7003C08D6003B08D5003A0815
:1004A600D4004230BD00C830BC000030BB00003074
:1004B600BA0022004B082000AC0022004C082000A5
:1004C600AD00890D893B8909AE00AF000130A3312B
:1004D6004F2380312F08C1002E08C0002D08BF0011
:1004E6002C08BE009E31872680313D08DB003C0883
:1004F600DA003B08D9003A08D80091315D218031F5
:100506005708EF005608EE005508ED005408EC00B9
:1005160093313E2380316B082100C80020006A0811
:100526002100C700200069082100C60020006808D5
:100536002100C5003F302000D7008030D6000030B3
:10054600D5000030D4003D30EB00EB30EA008530BA
:10055600E9001F30E8004130BD002030BC0000300B
:10056600BB000030BA00210048082000C10021006D
:1005760047082000C000210046082000BF002100D7
:1005860045082000BE009E31872680313D08EF00D9
:100596003C08EE003B08ED003A08EC0093313E23A0
:1005A60080316B08DB006A08DA006908D900680840
:1005B600D80091315D21803157082100D0002000FC
:1005C60056082100CF00200055082100CE0020004B
:1005D60054082100CD0050082000BD0021004F081E
:1005E6002000BC0021004E082000BB0021004D0861
:1005F6002000BA003F30C1008030C0000030BF008C
:100606000030BE009E31872680313D082100DE0085
:1006160020003C082100DD0020003B082100DC0012
:1006260020003A082100DB0040302000D7000030CF
:10063600D6000030D5000030D4004230BD00C830AE
:10064600BC000030BB000030BA0021003F0820008B
:10065600AC00210040082000AD00890D893B8909C6
:10066600AE00AF000130A3314F2380312F08C10007
:100676002E08C0002D08BF002C08BE009E3187261C
:1006860080313D08DB003C08DA003B08D9003A0817
:10069600D80091315D21803157082100CC0020001F
:1006A60056082100CB00200055082100CA00200072
:1006B60054082100C9003F082000AC002100400872
:1006C6002000AD00890D893B8909AE00AF000130DD
:1006D600A3314F2380312F08BD002E08BC002D0802
:1006E600BB002C08BA004230C100C830C000003040
:1006F600BF000030BE009E31872680313D08D700FE
:100706003C08D6003B08D5003A08D40021004C0826
:100716002000DB0021004B082000DA0021004A08F7
:100726002000D900210049082000D80091315D2120
:10073600803157082100D000200056082100CF0044
:10074600200055082100CE00200054082100CD00CD
:1007560050082000BD0021004F082000BC002100E9
:100766004E082000BB0021004D082000BA00403092
:10077600C1008030C0000030BF000030BE009E3196
:10078600872680313D082100DA0020003C08210040
:10079600D90020003B082100D80020003A0821009B
:1007A600D7005E082000A30021005D082000A200FB
:1007B60021005C082000A10021005B082000A000A9
:1007C6003F30A7008030A6000030A5000030A4000E
:1007D600A1313E218031031CF92B3F302100DE0080
:1007E6008030DD000030DC000030DB0021005A08DC
:1007F6002000A300210059082000A200210058086B
:100806002000A100210057082000A0003F30A700CB
:100816008030A6000030A5000030A400A1313E21A2
:100826008031031C1F2C3F302100DA008030D900B4
:100836000030D8000030D70021003D082000AC0071
:1008460021003E082000AD00890D893B8909AE00D4
:10085600AF000130A3314F2380312F08EF002E085F
:10086600EE002D08ED002C08EC0021005E082000AB
:10087600EB0021005D082000EA0021005C08200052
:10088600E90021005B082000E80093313E23803117
:100896006B082100D40020006A082100D300200044
:1008A60069082100D200200068082100D100540800
:1008B6002000EF00210053082000EE00210052081E
:1008C6002000ED00210051082000EC0021005A080C
:1008D6002000EB00210059082000EA0021005808FA
:1008E6002000E900210057082000E80093313E234C
:1008F60080316B082100B50020006A082100B40091
:10090600200069082100B300200068082100B20019
:10091600A031602080313308E0003208DF005E0835
:100926002000EF0021005D082000EE0021005C0899
:100936002000ED0021005B082000EC0021005A0891
:100946002000EB00210059082000EA002100580889
:100956002000E900210057082000E80093313E23DB
:1009660080316B082100D40020006A082100D300E2
:10097600200069082100D200200068082100D1006B
:1009860054082000EF00210053082000EE0021004B
:1009960052082000ED00210051082000EC004230F2
:1009A600EB00C830EA000030E9000030E80093317F
:1009B6003E2380316B082100B50020006A08210023
:1009C600B400200069082100B30020006808210057
:1009D600B200A031602080313308D6003208D5003D
:1009E6005608803AC10080304102031DFC2C643059
:1009F6005502031C032D63302100D5000030D600BC
:100A060022003108031D692D21006008803AC100CB
:100A160080304102031D112D64305F02031C3D2D01
:100A260005302100DF070030E03D60082000A5000A
:100A360021005F082000A40044302100C1004108C5
:100A46002000A600A131B9218031220046082100EC
:100A5600C10041082200BD0047082100C10041082D
:100A66002200BE0048082100C10041082200BF0044
:100A76005730B92D210060082000A50021005F082D
:100A86002000A40044302100C10041082000A60037
:100A9600A131B92180312030220048060319552D95
:100AA6004808562D30302100C10041082200BD0003
:100AB6002E302100C10041082200BE002030490628
:100AC6000319672D4908362D3030362D2100600870
:100AD600803AC10083304102031D732DE7305F0267
:100AE6000318942D210060082000A50021005F084E
:100AF6002000A40044302100C10041082000A600C7
:100B0600A131B9218031220047082100C1004108E6
:100B16002200BD0048082100C10041082200BE0095
:100B2600652D210060082000A50021005F08200037
:100B3600A40044302100C10041082000A600A131D4
:100B4600B9218031220046082100C1004108220057
:100B5600BD0047082100C10041082200BE00480828
:100B66002100C10041082200BF0049082100C10040
:100B760041082200C00004302F060319C62D053097
:100B86002F06031DD52D40302100C1004108F3007A
:100B96003D30F4000130F5000430C2004208F60092
:100BA6000430F02D02302F060319DD2D03302F06F9
:100BB600031DDF2D0D30E32D2F080319F32D0C3007
:100BC6002100C1004108F3003D30F4000130F5007A
:100BD6000430C2004208F6000030AF3110278031E1
:100BE600210056082000A500210055082000A40079
:100BF60044302100C10041082000A600A131B921DE
:100C06008031220048082100C10041082200BD00B1
:100C160049082100C10041082200BE0004302F0609
:100C26000319192E05302F06031D282E4C302100DE
:100C3600C1004108F3003D30F4000130F5000230F8
:100C4600C2004208F6000630432E02302F06031972
:100C5600302E03302F06031D322E0E30362E2F0374
:100C6600031D452E0D302100C1004108F3003D3023
:100C7600F4000130F5000230C2004208F6000130EF
:100C8600AF311027640008006400043022002F06EC
:100C96000319512E05302F06031D292F2C08031D7D
:100CA600ED2E16302000B1003108F3009530F40027
:100CB600B030F5000730B2003208F6000030AF3130
:100CC6001027863106302000B1003108F3002030AD
:100CD600F400B030F5000930B2003208F6000230F8
:100CE600AF311027863110302000B1003108F300F3
:100CF6005730F400B030F5000830B2003208F60084
:100D06000430AF311027863104302000B10031089D
:100D1600F3000B30F400B030F5000A30B2003208B0
:100D2600F6000630AF311027863164005830F300E4
:100D36000230F400AC31FE2486316400F430F30056
:100D46000130F400AC31FE248631640010302000FE
:100D5600B1003108F3000230F400B030F50008307D
:100D6600B2003208F6000030AF3110278631043069
:100D76002000B1003108F3000030F400B030F50077
:100D86000A30B2003208F6000230AF311027863141
:100D960010302000B1003108F3000230F400B0300A
:100DA600F5000830B2003208F6000430AF311027E3
:100DB600863104302000B1003108F3000030F40021
:100DC600B030F5000A30B2003208F6000630AF3116
:100DD600102786319630F3000030F400AC31FE2443
:100DE600863122003103031D012F10302000B1008F
:100DF6003108F3006930F400B030092F10302000BC
:100E0600B1003108F3007B30F400B030F500083053
:100E1600B2003208F6000030AF31102786311030AC
:100E26002000B1003108F3004E30F400B030F50078
:100E36000830B2003208F6000230AF311027863192
:100E460022002E080319F62F7030E82F2F080319F9
:100E5600F62F2C08031DB72F04302000B1003108EF
:100E6600F3009530F400B030F5000730B2003208D8
:100E7600F6000030AF311027863103302000B10074
:100E86003108F3002030F400B030F5000930B2002C
:100E96003208F6000130AF31102786316400BC30CD
:100EA600F3000230F400AC31FE2486316400F430E5
:100EB600F3000130F400AC31FE24863164000430C6
:100EC6002000B1003108F3005730F400B030F500CF
:100ED6000830B2003208F6000030AF3110278631F4
:100EE60003302000B1003108F3000B30F400B030BD
:100EF600F5000A30B2003208F6000130AF31102793
:100F0600863164005830F3000230F400AC31FE2420
:100F160086316400F430F3000130F400AC31FE2475
:100F26008631640004302000B1003108F30002303D
:100F3600F400B030F5000830B2003208F600003098
:100F4600AF311027863103302000B1003108F3009D
:100F56000030F400B030F5000A30B2003208F60076
:100F66000130AF31102786319630F3000030F4009F
:100F7600AC31FE24863122003103031DC72FF30155
:100F86006930F400B030CB2FF3017B30F400B03081
:100F9600F50008302000B1003108F6000030AF310E
:100FA60010278631F3014E30F400B030F5000830DA
:100FB6002000B1003108F6000130AF31102786312C
:100FC60022002E080319F62F08302000B100310840
:100FD600F300BE30F400B030F500F601F60A00303A
:100FE600AF3110278631640095319725080001340A
:0A0FF60001340734073401340134DC
:10100200A400A001A1017308F500F6017508A20071
:101012007608A300241C11282208A0072308A13D5A
:101022000130A235A30D890B12280310A40C240849
:10103200031D0B282108F4002008F30008006400B7
:10104200A031002088312A082100C90020002B0885
:101052002100CA00CB01CC01AE31C52688312A0855
:101062002100C50020002B082100C600C701C801CD
:1010720022006B03031D5E2803302000A500003010
:10108200A60021004A082000A400210049082000EF
:10109200A300AD31152588312408AA002308A90030
:1010A2009C31282488312908AC002A08AD00890D1A
:1010B200893B8909AE00AF00822800302000A700DA
:1010C2000030A6000030A5000330A40021004C0827
:1010D2002000A30021004B082000A20021004A08A2
:1010E2002000A100210049082000A000AD315525B3
:1010F20088312308AF002208AE002108AD00200885
:10110200AC000130A3314F2388312F082100D000D9
:1011120020002E082100CF0020002D082100CE0043
:1011220020002C082100CD004808803ABD004C0860
:10113200803A3D02031DA7284B084702031DA7283A
:101142004A084602031DA728490845020318132925
:1011520045084902BD0046084A3BBE0047084B3BD2
:10116200BF0048084C3BC00040082000AB002100F3
:101172003F082000AA0021003E082000A90021000B
:101182003D082000A800210049084507C1004A087F
:10119200463DC2004B08473DC3004C08483DC400D1
:1011A20044082000A300210043082000A2002100DF
:1011B20042082000A100210041082000A0000030C8
:1011C200A7000030A6000030A5006430A400AD31B5
:1011D200552588312308AF002208AE002108AD0052
:1011E2002008AC00A231392288312B082100CC0022
:1011F20020002A082100CB00200029082100CA0073
:10120200200028082100C900CC1B1C294C08031D02
:1012120013294B08031D1329E830490203304A3BC6
:10122200031C1C2900302100CC000030CB0003300D
:10123200CA00E730C90044302000BD007A30BC004B
:101242000030BB000030BA00210050082000EB0043
:1012520021004F082000EA0021004E082000E9008A
:1012620021004D082000E800230058082100BD009D
:10127200BE01BF01C00140082000AF0021003F08AD
:101282002000AE0021003E082000AD0021003D08F4
:101292002000AC000130A3314F2388312F08EF002A
:1012A2002E08EE002D08ED002C08EC0093313E23B1
:1012B20088316B08C1006A08C0006908BF0068086D
:1012C200BE009E31872688313D082100D0002000D3
:1012D2003C082100CF0020003B082100CE00200066
:1012E2003A082100CD003F302000BD00B430BC00E0
:1012F200FD30BB00F430BA00210050082000C100CC
:1013020021004F082000C00021004E082000BF002D
:1013120021004D082000BE009E31872688313D08FD
:101322002100D00020003C082100CF0020003B0813
:101332002100CE0020003A082100CD002200310316
:10134200031DA82942302000BD004830AC2940309E
:101352002000BD00A030BC000030BB000030BA004D
:10136200210050082000EB0021004F082000EA0075
:1013720021004E082000E90021004D082000E8006D
:10138200210050082000EF0021004F082000EE004D
:1013920021004E082000ED0021004D082000EC0045
:1013A20093313E2388316B08C1006A08C000690886
:1013B200BF006808BE009E31872688313D082100A3
:1013C200D00020003C082100CF0020003B08210073
:1013D200CE0020003A082100CD003F302000D70087
:1013E2000030D6000030D5000030D4002100500873
:1013F2002000DB0021004F082000DA0021004E0807
:101402002000D90021004D082000D80091315D2133
:10141200883157082100D000200056082100CF0053
:10142200200055082100CE00200054082100CD00E4
:101432005008B5004F08B4004E08B3004D08B20082
:10144200A0316020883133082200A7002100320831
:101452002200A6002100CC1B3B2A4C08031D402A77
:101462004B08031D402A4A08031D402A64304902E2
:101472000318402AE730F8000330F9000800210081
:101482004A08F9004908F80008002100E901EA01C8
:10149200230028089C3E2100E700FF302300293D5D
:1014A2002100E8002200A601A70164007830210093
:1014B200E1006108E400E5016408650203188E2A70
:1014C200883120208A3121006A08803AE100220016
:1014D2002708803A21006102031D732A2200260890
:1014E200210069020318812A220027082100EA004C
:1014F200220026082100E9007908EC007808EB00B8
:101502000330F3000030F400AC31FE248A310130A4
:101512002100E1006108E5075D2A640021006A08F4
:10152200803AE10080306102031D992A6430690229
:10153200031CC52A0A30F3000030F40021006908B8
:10154200053EF50000306A3DF600AF31AE278A3124
:1015520074082100EA007308E9000A302000A300A1
:101562000030A40021006A082000A60021006908BA
:101572002000A500AD3115258A3124082100EA009A
:10158200200023082100E90021006A082300A100AD
:10159200210069082300A0002108803A2100E1000F
:1015A20080306102031DD82A0A302300200203186A
:1015B200DD2A2100EB01EC0121006C082000AB00C8
:1015C20021006B082000AA009931B9218A3121003B
:1015D200E601E60A22002108803A2100E1006C08B7
:1015E200803A6102031DF82A6B08220020020318C8
:1015F200102B2200200821006B02E10022002108AA
:1016020021006C3BE2006808803AE3006208803AFD
:101612006302031D0E2B61086702031C422B21008B
:101622006C08803AE10022002108803A2100610220
:10163200031D1F2B2200200821006B020318382BE8
:1016420021006B08220020022100E1006C08220028
:10165200213B2100E2006808803AE3006208803AF8
:101662006302031D362B61086702031C422BE7301D
:10167200220020060330031921060319422B210000
:10168200E60121006C08803AE10023002908803A33
:1016920021006102031D512B2300280821006B0247
:1016A200031C552B0130562B003022002E05210041
:1016B200660503195F2B2300D101D10A23002108FB
:1016C2002100BE00230020082100BD006C08C000DC
:1016D2006B08BF00803150208A316400220036033B
:1016E200031D080004302F0603197B2B05302F063B
:1016F200031D372C10302100E1006108F300023095
:10170200F400B030F5000830E2006208F600023062
:10171200AF3110278A316430F3000030F400AC316D
:10172200FE248A3110302100E1006108F3006030AC
:10173200F400B030F5000830E2006208F600023032
:10174200AF3110278A31F430F3000130F400AC31AC
:10175200FE248A31640010302100E1006108F300A8
:101762000230F400B030F5000830E2006208F60002
:101772000230AF3110278A312C30F3000130F400EF
:10178200AC31FE248A31640010302100E10061088E
:10179200F3006030F400B030F5000830E200620877
:1017A200F6000230AF3110278A31F430F3000130F5
:1017B200F400AC31FE248A31640010302100E100D3
:1017C2006108F3000230F400B030F5000830E200A6
:1017D2006208F6000230AF3110278A312C30F30054
:1017E2000130F400AC31FE248A3164001030210053
:1017F200E1006108F3006030F400B030F500083019
:10180200E2006208F6000230AF3110278A31F4306C
:10181200F3000130F400AC31FE248A316400103050
:101822002100E1006108F3000230F400B030F5005D
:101832000830E2006208F6000230AF3110278A3128
:101842006430F3000030F400AC31FE248A311030F1
:101852002100E1006108F3003330F400B030F500FC
:101862000830E2006208F6000230DD2C2F0803196E
:10187200E02CF3010230F400B030F5000830210012
:10188200E1006108F6000130AF3110278A3164307F
:10189200F3000030F400AC31FE248A31F3016030F1
:1018A200F400B030F50008302100E1006108F600D4
:1018B2000130AF3110278A31F430F3000130F400E7
:1018C200AC31FE248A316400F3010230F400B030FE
:1018D200F50008302100E1006108F6000130AF3167
:1018E20010278A312C30F3000130F400AC31FE2491
:1018F2008A316400F3016030F400B030F500083042
:101902002100E1006108F6000130AF3110278A3171
:10191200F430F3000130F400AC31FE248A3164006B
:10192200F3010230F400B030F50008302100E1008C
:101932006108F6000130AF3110278A312C30F300F4
:101942000130F400AC31FE248A316400F3016030CE
:10195200F400B030F50008302100E1006108F60023
:101962000130AF3110278A31F430F3000130F40036
:10197200AC31FE248A316400F3010230F400B0304D
:10198200F50008302100E1006108F6000130AF31B6
:1019920010278A316430F3000030F400AC31FE24A9
:1019A2008A31F3012A30F400B030F500083021000A
:1019B200E1006108F6000130AF3110278A3164007E
:1019C20010302300D4002730D50021006C082000FD
:1019D200AB0021006B082000AA009931B921080050
:1019E20064000130AC31C0248C312000A9002908E8
:1019F2002200AF000230AC31C0248C31013A031D09
:101A0200052D2200AE01AE0A0330AC31C0248C3168
:101A1200AC31D3248C31A900AA0129082200A200EA
:101A220020002A082200A3000430AC31C0248C31EB
:101A3200AC31D3248C31A900AA012908A3002A08B9
:101A4200A4000A30A5000030A600AD3115258C3166
:101A520024082300A900200023082300A800053041
:101A6200AC31C0248C31AC31D3248C31A900AA0111
:101A72002908A3002A08A4000A30A5000030A60005
:101A8200AD3115258C3124082300A700200023083E
:101A92002300A6000630AC31C0248C31AC31D324F3
:101AA2008C31A900AA012908A3002A08A4000A303F
:101AB200A5000030A600AD3115258C312408230085
:101AC200A500200023082300A4000930AC31C02463
:101AD2008C31AC31D3248C31A900AA012908A3008E
:101AE2002A08A4000A30A5000030A600AD31152551
:101AF2008C3124082300A300200023082300A20025
:101B02000A30AC31C0248C312000A90029082200FF
:101B1200ED000B30AC31C0248C312000A900290823
:101B22002200B5000C30AC31C0248C312000A90059
:101B320029082200EC000D30AC31C0248C31200089
:101B4200A90029082200B4000E30AC31C0248C3127
:101B52002000A90029082200EB000F30AC31C0247C
:101B62008C312000A90029082200B3006400113042
:101B7200AC31C0248C31AC31D3248C31A900AA0100
:101B82001030AC31C0248C31AC31D3248C31AB0059
:101B9200AC012B08A3002C08A4006430A50000307F
:101BA200A600AD3115258C31290823072300B60084
:101BB20020002A08243D2300B7001330AC31C02492
:101BC2008C31AC31D3248C31A900AA011230AC3152
:101BD200C0248C31AC31D3248C31AB00AC012B0846
:101BE200A3002C08A4006430A5000030A600AD318B
:101BF20015258C31290823072300B40020002A0868
:101C0200243D2300B5001530AC31C0248C31AC31F9
:101C1200D3248C31A900AA011430AC31C0248C31F8
:101C2200AC31D3248C31AB00AC012B08A3002C08BF
:101C3200A4006430A5000030A600AD3115258C311A
:101C4200290823072300B20020002A08243D23008C
:101C5200B3001730AC31C0248C31AC31D3248C3179
:101C6200A900AA011630AC31C0248C31AC31D32486
:101C72008C31AB00AC012B08A3002C08A40064300B
:101C8200A5000030A600AD3115258C3129082307A7
:101C92002300B00020002A08243D2300B10019309F
:101CA200AC31C0248C31AC31D3248C31A900AA01CF
:101CB2001830AC31C0248C31AC31D3248C31AB0020
:101CC200AC012B08A3002C08A4006430A50000304E
:101CD200A600AD3115258C31290823072300AE005B
:101CE20020002A08243D2300AF001B30AC31C02461
:101CF2008C31AC31D3248C31A900AA011A30AC3119
:101D0200C0248C31AC31D3248C31AB00AC012B0814
:101D1200A3002C08A4006430A5000030A600AD3159
:101D220015258C31290823072300AC0020002A083E
:101D3200243D2300AD001D30AC31C0248C31AC31C8
:101D4200D3248C31A900AA011C30AC31C0248C31BF
:101D5200AC31D3248C31AB00AC012B08A3002C088E
:101D6200A4006430A5000030A600AD3115258C31E9
:101D7200290823072300AA0020002A08243D230063
:101D8200AB002130AC31C0248C31AC31D3248C3146
:101D9200A900AA012030AC31C0248C31AC31D3244B
:101DA2008C31AB00AC012B08A3002C08A4006430DA
:101DB200A5000030A600AD3115258C312908230776
:101DC2002300C40020002A08243D2300C50023303C
:101DD200AC31C0248C31AC31D3248C31A900AA019E
:101DE2002230AC31C0248C31AC31D3248C31AB00E5
:101DF200AC012B08A3002C08A4006430A50000301D
:101E0200A600AD3115258C31290823072300C20015
:101E120020002A08243D2300C3002530AC31C02411
:101E22008C31AC31D3248C31A900AA012430AC31DD
:101E3200C0248C31AC31D3248C31AB00AC012B08E3
:101E4200A3002C08A4006430A5000030A600AD3128
:101E520015258C31290823072300C00020002A08F9
:101E6200243D2300C1002730AC31C0248C31AC3179
:101E7200D3248C31A900AA012630AC31C0248C3184
:101E8200AC31D3248C31AB00AC012B08A3002C085D
:101E9200A4006430A5000030A600AD3115258C31B8
:101EA200290823072300BE0020002A08243D23001E
:101EB200BF002930AC31C0248C31AC31D3248C31F9
:101EC200A900AA012830AC31C0248C31AC31D32412
:101ED2008C31AB00AC012B08A3002C08A4006430A9
:101EE200A5000030A600AD3115258C312908230745
:101EF2002300BC0020002A08243D2300BD002B3013
:101F0200AC31C0248C31AC31D3248C31A900AA016C
:101F12002A30AC31C0248C31AC31D3248C31AB00AB
:101F2200AC012B08A3002C08A4006430A5000030EB
:101F3200A600AD3115258C31290823072300BA00EC
:101F420020002A08243D2300BB002D30AC31C024E0
:101F52008C31AC31D3248C31A900AA012C30AC31A4
:101F6200C0248C31AC31D3248C31AB00AC012B08B2
:101F7200A3002C08A4006430A5000030A600AD31F7
:101F820015258C31290823072300B80020002A08D0
:101F9200243D2300B9003030AC31C0248C31200004
:101FA200A90029082200B1003130AC31C0248C31A3
:101FB200AC31D3248C31A90029082300D800333056
:101FC200AC31C0248C312000A90029082200B000C5
:101FD2003430AC31C0248C31AC31D3248C31A900E3
:101FE20029082200B2003530AC31C0248C31AC312A
:0E1FF200D324A90029082300D20064000800AF
:10200A002308A5002508A700392800300D1801303B
:10201A00A800292800308D180130A800292800308E
:10202A000D190130A80029282208A500A6012608B2
:10203A00003A0319212814282508003A03190A2806
:10204A00013A03190F2814282808240603192F28EF
:10205A00003008000130F3000030F400AC31FE24F7
:10206A00903101302000A7022708031D1928FF30EC
:10207A00080079082200E5007808E400A531D12596
:10208A00903178087904031D4D28AC31E824080002
:10209A009831F22090317908803A2200DD008030B0
:1020AA005D02031D5A2878307802031C0800983113
:1020BA002C2090317808790403194A289831F220A3
:1020CA0090317908803A2200DD0080305D02031DDC
:1020DA00702878307802031C0800A7313B2790311A
:1020EA007808790403194A289831F220903179083E
:1020FA00803A2200DD0080305D02031D8628783098
:10210A007802031C08007908803A2200DD0080303A
:10211A005D02031D9228C83078020318B328790893
:10212A00803A2200DD006508803A5D02031D9F287F
:10213A00640878020318B328780822006402DD00D4
:10214A007908653BDE005E08803ADF0080305F0276
:10215A00031DB12865305D020318080079082200C2
:10216A00E5007808E4003C08DD00DE015D08E000D7
:10217A005E08E1007A08DD00DE015D08E2005E0823
:10218A00E3003B03031DCB28BB01CD28BB01BB0ADF
:10219A00AC31E824903122003B08AC31AE249031B6
:1021AA003230F3000030F400AC31FE249031983123
:1021BA00F22090317908803A2200DD0080305D02F9
:1021CA00031DE92878307802031C0800A531D125BF
:1021DA0090317808790403194A289831F22090310D
:1021EA007908803A2200DD0080305D02031DFF2855
:1021FA0078307802031C080098312C209031780836
:10220A00790403194A289831F22090317908803AE2
:10221A002200DD0080305D02031D15297830780226
:10222A00031C0800A7313B27903178087904031969
:10223A004A289831F22090317908803A2200DD004C
:10224A0080305D02031D2B2978307802031C0800B8
:10225A0022006508803ADD007908803A5D02031D94
:10226A0038297808640203185B2922003B03031DFE
:10227A004029BB014229BB01BB0A3B08AC31AE2451
:10228A00903122006008DD005D08BC006208DD00B4
:10229A005D08FA003C08A231BA2290317A08AE31C0
:1022AA00362622006508F9006408F8006400080070
:1022BA0057088039DC005C08E4005735DC005C080C
:1022CA00E600D61B6614660803197929660A031DF7
:1022DA0076290030D7000030D6000030D500003013
:1022EA00D400D617D70181290030D7000030D60094
:1022FA000030D5000030D4005B088039DC005C086F
:10230A00E50065086406031D64175B35DC005C089C
:10231A00E500DA1B651465080319A129650A031D7E
:10232A009E290030DB000030DA000030D90000308E
:10233A00D800DA17DB01A9290030DB000030DA0007
:10234A000030D9000030D800660865020318EF296A
:10235A00641FB3298030DC005C08E4066608DC00F0
:10236A005C08E7006508DC005C08E6006708DC003A
:10237A005C08E5005408DC005C08E7005808DC004B
:10238A005C08D4006708DC005C08D8005508DC004B
:10239A005C08E7005908DC005C08D5006708DC0027
:1023AA005C08D9005608DC005C08E7005A08DC0023
:1023BA005C08D6006708DC005C08DA005708DC0015
:1023CA005C08E7005B08DC005C08D7006708DC00F3
:1023DA005C08DB00E7016508DC00DD015D08DF0061
:1023EA0066085C02DE00031CDF035F08803AE00037
:1023FA0080306002031D032A1A305E02031C372A4A
:10240A002000570856045504540403190E2A0130B3
:10241A000F2A0030DC005C08E7000030D7000030EB
:10242A00D6000030D5000030D4006508DC005C0816
:10243A00E6003C2A671C272A67360138DC005C085C
:10244A00E700292A0310E70C5418E7170130DC00CB
:10245A00D737D60CD50CD40CDC0B2D2A0130DC0076
:10246A005C08E607200065086602031C1F2A641B35
:10247A006D2A6608031D4A2A0030D7000030D600AC
:10248A000030D5000030D40008005808D407590895
:10249A00D53D5A08D63D5B08D73D571CE72A671C2D
:1024AA005C2A67360138DC005C08E7005E2A031004
:1024BA00E70C5418E7170130DC00D737D60CD50CD7
:1024CA00D40CDC0B622A0130DC005C08E607E72A40
:1024DA005708803ADC005B08803A5C02031D7F2AB9
:1024EA005A085602031D7F2A59085502031D7F2ADE
:1024FA00580854020318B72AFF30DC00FF30DD0009
:10250A00FF30DE00FF30DF0054085802E0005508B3
:10251A00593BE10056085A3BE20057085B3BE3008F
:10252A006008DC076108DD3D6208DE3D6308DF3DC7
:10253A005F08D7005E08D6005D08D5005C08D400A5
:10254A008030DC005C08E406E709E70A6708031D37
:10255A00BF2A0130D4070030D53D0030D63D0030C7
:10256A00D73DBF2A5808D4025908D53B5A08D63B4A
:10257A005B08D73B5708560455045404031DE52A43
:10258A006708031DE52A0030D7000030D600003066
:10259A00D5000030D40008000130D435D50DD60D51
:1025AA00D70D890BD22AE71B5414671CDE2A0314A1
:1025BA00DF2A0310E70D66080319E52A0130E6024F
:1025CA00D61FD12AE501E71FF22A67087F390319C6
:1025DA005418F02AF22AE501E50A650803191E2BA8
:1025EA000130D4070030D53D0030D63D0030D73D0C
:1025FA00571C1E2B5408DC005508DD005608DE0067
:10260A005708DF000130E000DF37DE0CDD0CDC0CA0
:10261A00E00B092B5F08D7005E08D6005D08D500DD
:10262A005C08D400660A03191E2B0130DC005C0822
:10263A00E607660A031D6608031D2E2B0030D70025
:10264A000030D6000030D5000030D40066080319E7
:10265A00E401661C322BD617362B7F30DC005C086F
:10266A00D6056636DC005C08D700E41F0800D717D9
:10267A0008006B0880392100A0002008A50020006E
:10268A006B352100A0002008AB002000EA1F4F2B69
:10269A0021002B1421002B080319622B2B0A031D7E
:1026AA005F2B00302000EB000030EA000030E90028
:1026BA000030E8002000EA176B2B00302000EB0006
:1026CA000030EA000030E9000030E8006F08803985
:1026DA002100A0002008A50620006F352100A000D7
:1026EA002008A6002000EE1F7C2B210026142100C2
:1026FA00260803198F2B260A031D8C2B0030200075
:10270A00EF000030EE000030ED000030EC00200059
:10271A00EE17982B00302000EF000030EE0000305A
:10272A00ED000030EC0021002608031D2B08031DD4
:10273A00A82B00302000EB000030EA000030E9004E
:10274A000030E8000800200068082100A0002008E6
:10275A00F30020006E0888310120933174082100AB
:10276A00B1007308B0003008A000A101A201A301C2
:10277A002308AA002208A9002108A8002008A70007
:10278A003108A000A101A201A3012308AF00220879
:10279A00AE002108AD002008AC0020006908210025
:1027AA00A0002008F30020006D0888310120933131
:1027BA0074082100B1007308B0003008A000A1011C
:1027CA00A201A3012008A7072108A83D2208A93DC4
:1027DA002308AA3D3108A000A101A201A3012008F3
:1027EA00AC072108AD3D2208AE3D2308AF3D2000CD
:1027FA006A082100A0002008F30020006C08883134
:10280A000120933174082100B1007308B000300828
:10281A00A000A101A201A3012008A7072108A83D41
:10282A002208A93D2308AA3D3108A000A101A2015E
:10283A00A3012008AC072108AD3D2208AE3D2308BC
:10284A00AF3D0830A735A80DA90DAA0D890B272C75
:10285A00200069082100A0002008F30020006C086D
:10286A0088310120933174082100B1007308B00047
:10287A003008A7073108A83D0030A93DAA3D20002D
:10288A0068082100A0002008F30020006D088831A4
:10289A000120933174082100B1007308B000300898
:1028AA00A7073108A83D0030A93DAA3D0830A73541
:1028BA00A80DA90DAA0D890B5C2C2000680821001F
:1028CA00A0002008F30020006C0888310120933111
:1028DA0074082100B1007308B0003008A707310856
:1028EA00A83D0030A93DAA3D200069082100A000AA
:1028FA002008F30020006E08883101209331740803
:10290A002100B1007308B0003008AC073108AD3DB2
:10291A000030AE3DAF3D20006A082100A00020082B
:10292A00F30020006D0888310120933174082100DA
:10293A00B1007308B0003008AC073108AD3D003073
:10294A00AE3DAF3D20006A082100A0002008F30038
:10295A0020006E0888310120933174082100B100EB
:10296A007308B0003008A0003108A100A201A30139
:10297A000830A035A10DA20DA30D890BBE2C20088D
:10298A00AC072108AD3D2208AE3D2308AF3D2A0819
:10299A00A000A101A201A3012008AC072108AD3DB6
:1029AA002208AE3D2308AF3D0830A735A80DA90D72
:1029BA00AA0D890BDA2C2B082607A000A101A10D6C
:1029CA002008823EB000FF30213DB100AE1B022D2F
:1029DA000130AC35AD0DAE0DAF0D890BEE2CAA1B37
:1029EA002C140130A735A80DA90DAA0D890BF72CB7
:1029FA00FF30B007FF30B13DEB2CA601AA1F1B2DFB
:102A0A00FF302705A000FF302805A100FF30290567
:102A1A00A2007F302A05A3002308220421042004EF
:102A2A0003192C18192D1B2DA601A60A260803190D
:102A3A00442D0130AC070030AD3D0030AE3D0030D2
:102A4A00AF3D2F1C442D2C08A0002D08A1002E08F4
:102A5A00A2002F08A3000130A400A337A20CA10CE6
:102A6A00A00CA40B322D2308AF002208AE002108C7
:102A7A00AD002008AC000130B0070030B13D31088C
:102A8A00803AA00080302002031D4D2DFF30300215
:102A9A00031C592D7F302100AF008030AE0000307A
:102AAA00AD000030AC00832D21003108803AA0002F
:102ABA0080302002031D632D013030020318702D6F
:102ACA0000302100AF000030AE000030AD00003011
:102ADA00AC00A501832D21003008A0002008AB001E
:102AEA00FF30AC05FF30AD057F30AE050030AF05D5
:102AFA002B18AE172B36A0002008AF002508A0001F
:102B0A002008AF042F082000EB0021002E08200027
:102B1A00EA0021002D082000E90021002C082000ED
:102B2A00E8000800640022003C082000AA002A08E5
:102B3A00AC00AE01AF012C1CAA2D230036082000E0
:102B4A00AE07230037082000AF3DAC1CB42D23008C
:102B5A0034082000AE07230035082000AF3D2C1DA5
:102B6A00BE2D230032082000AE07230033082000C0
:102B7A00AF3DAC1DC82D230030082000AE0723004E
:102B8A0031082000AF3D2C1ED22D23002E08200034
:102B9A00AE0723002F082000AF3DAC1EDC2D23001A
:102BAA002C082000AE0723002D082000AF3D2C1F63
:102BBA00E62D23002A082000AE0723002B08200058
:102BCA00AF3D2F08803AAA00A7302A02031DEF2D35
:102BDA0010302E02031C162E32302000AE070030B1
:102BEA00AF3D2F08A5002E08A4004430AA002A08E9
:102BFA00A600A131B9219531220045082000AA007A
:102C0A002A082200BD0046082000AA002A0822003D
:102C1A00BE002E302000AA002A082200BF00470862
:102C2A00482E20002F08A5002E08A4004430AA0030
:102C3A002A08A600A131B921953120302200460682
:102C4A000319292E46082A2E30302000AA002A0805
:102C5A002200BD002E302000AA002A082200BE0051
:102C6A002030470603193B2E47083C2E30302000FF
:102C7A00AA002A082200BF00203048060319472E5E
:102C8A004808482E30302000AA002A082200C00036
:102C9A0004302F060319552E05302F06031D822EE8
:102CAA003B03031D5A2E04305B2E06302000AA0077
:102CBA002A08B0001030AA002A08F300B530F40040
:102CCA00B030F5000230AB002B08F6003008AF3107
:102CDA001027953158302000AA002A08F300BB308B
:102CEA00F400B030F5000230AB002B08F6003008D3
:102CFA00AF31102795312830DD2E02302F06031907
:102D0A008A2E03302F06031DB12E3B03031D902E7E
:102D1A002000B001932E2000B001B00A0930AA00A9
:102D2A002A08F300B530F400B030F5000230AB00E9
:102D3A002B08F6003008AF31102795310F302000EC
:102D4A00AA002A08F300BB30F400B030F5000230C4
:102D5A00AB002B08F600D82E2F03031DED2E3B03E4
:102D6A00031DBA2E2000B001BD2E2000B001B00A0A
:102D7A000930AA002A08F300B530F400B030F50093
:102D8A000230AB002B08F6003008AF31102795311E
:102D9A000F302000AA002A08F300C830F400B0302F
:102DAA00F500F601F60A3008AF31102795310B30DD
:102DBA002000AA002A08F3003D30F4000130F50093
:102DCA000430AB002B08F6003008AF3110279531DC
:102DDA0064002000AE01AF017A08AA002A08AD00FB
:102DEA002D1CFF2E230044082000AE0723004508AF
:102DFA002000AF3DAD1C092F230042082000AE077A
:102E0A00230043082000AF3D2D1D132F2300400847
:102E1A002000AE07230041082000AF3DAD1D1D2F45
:102E2A0023003E082000AE0723003F082000AF3DE4
:102E3A002D1E272F23003C082000AE0723003D0843
:102E4A002000AF3DAD1E312F23003A082000AE0707
:102E5A0023003B082000AF3D2D1F3B2F23003808DD
:102E6A002000AE07230039082000AF3D2F08A50037
:102E7A002E08A4004430AA002A08A600A131B921CC
:102E8A009531220046082000AA002A082200BD0027
:102E9A0047082000AA002A082200BE00480820008D
:102EAA00AA002A082200BF0049082000AA002A080E
:102EBA002200C00004302F060319672F05302F06A1
:102ECA00031D942F3B03031D6C2F06306D2F043016
:102EDA002000AA002A08B0001030AA002A08F3002D
:102EEA00B230F400B030F5000230AB002B08F60027
:102EFA003008AF311027953158302000AA002A082F
:102F0A00F300B830F400B030F5000230AB002B0803
:102F1A00F6003008AF31102795312830EF2F0230F4
:102F2A002F0603199C2F03302F06031DC32F3B03C3
:102F3A00031DA32F2000B001B00AA52F2000B00165
:102F4A000930AA002A08F300B230F400B030F500C4
:102F5A000230AB002B08F6003008AF31102795314C
:102F6A000F302000AA002A08F300B830F400B0306D
:102F7A00F5000230AB002B08F600EA2F2F03031DE1
:102F8A00FE2F3B03031DCD2F2000B001B00ACF2F27
:102F9A002000B0010930AA002A08F300B230F40078
:102FAA00B030F5000230AB002B08F6003008AF3124
:102FBA00102795310F302000AA002A08F300C630E6
:102FCA00F400B030F500F601F60A3008AF311027E8
:102FDA0095310B302000AA002A08F3003D30F40096
:102FEA000130F5000430AB002B08F6003008AF3191
:062FFA001027640008002E
:10300800A70023009518052820002708A500A60179
:1030180025082300910020002608230092002000A4
:103028002408230093003F302000A5002508230032
:10303800950503108B1B03148B131515553096003B
:10304800AA30960095141511031C08008B17080068
:1030580022006F08CF004F08F3003908AC319D24D7
:1030680098312200D0005008D6003C085607CF00FF
:103078004F08D4006F08CF00D0010530CF35D00DF0
:10308800890B42284F08FF3ED100FF30503DD20047
:103098005208803AD30080305302031D5528540843
:1030A80051020318642822006F08CF000430CF357E
:1030B800FF3E031D5B284F35FF3ED0005008D4006B
:1030C80022003C08560203186F2856083C02CF001D
:1030D8004F08D5007028D5015508CF004F08BC000F
:1030E8003C08A231BA2298319831F22098317808F8
:1030F80079040319080079082200D8007808D70055
:1031080055086F07CF004F08D90059085402031C0F
:10311800ED285908A231BA2298319831F220983115
:1031280078087904031908007908803A2200CF004A
:103138005808803A4F02031DA32857087802031C39
:10314800AF280A30F3000030F400AC31FE24983187
:103158009831F22098317908803A2200CF00580837
:10316800803A4F02031DBA2857087802031CC62864
:103178000A30F3000030F400AC31FE249831983165
:10318800F22098317908803A2200CF005808803A16
:103198004F02031DD128570878020318ED28790833
:1031A8002200D8007808D7005908CF004F08BC0083
:1031B8007908803ACF0080304F02031DE528783027
:1031C8007802031CED2822006F08CF004F08D907AA
:1031D800892822003C08A231BA2208008831202020
:1031E8009831643022003706031910290130CD00C8
:1031F8004D08B7072508803ACD002708803A4D02C8
:10320800031D08292608240203182229220027085A
:10321800A5002608A4002229B70125082100BE0020
:10322800220024082100BD007908C0007808BF00EA
:103238008031502098312200A401A50122002708DE
:10324800803ACD0023002708803A22004D02031D52
:103258003129230026082200260203189B2964002E
:10326800883120209831643022003706031952290A
:103278000130CD004D08B7072508803ACD00270852
:10328800803A4D02031D4A2926082402031864299E
:1032980022002708A5002608A4006429B7012508EC
:1032A8002100BE00220024082100BD007908C000CA
:1032B8007808BF008031502098312200A401A50170
:1032C8000D302000A0000030A100A201053022002E
:1032D800CD004D082000A300A401A40A90310520C8
:1032E8009831003A03197B292200B801B80A0D3039
:1032F8002000A0000030A100A20105302200CD006E
:103308004D082000A300A401903105209831220027
:10331800CE003803031D92290130932900304E0551
:1033280003192229A4318424F801F9010800230093
:103338002508803A2200CD002708803A4D02031D57
:10334800A8292608230024020318080023002508BA
:10335800803A2200CD0080304D02031DB62901308D
:1033680023002402031C08003329640023005508A5
:1033780020002B06031DC4292300540820002A0618
:103388000319832A2B082300D50020002A082300CC
:10339800D40020002A082B04031D0B2A0430220025
:1033A8002F060319DB2905302F06031DED294030B0
:1033B8002000AC002C08F3005230F400B030F500C7
:1033C8000430AD002D08F6000230AF3110279931D6
:1033D800072A2F080319022A04302000AC002C0801
:1033E800F3005230F400B030F5000430AD002D0881
:1033F800F6000130AF3110279931072A2F08031D35
:10340800072A0D178D172300D401D501832A2B080D
:10341800A5002A08A4004430AC002C08A600A1315D
:10342800B9219931220047082000AC002C0822005D
:10343800BD002E302000AC002C082200BE00480839
:103448002000AC002C082200BF0049082000AC0076
:103458002C082200C00004302F060319372A053033
:103468002F06031D492A40302000AC002C08F30029
:103478003D30F4000130F5000430AD002D08F600B1
:103488000230AF3110279931832A2F0803195E2A99
:1034980004302000AC002C08F3003D30F40001306B
:1034A800F5000430AD002D08F6000130AF311027CB
:1034B8009931832A2F08031D832A20002B08803A7C
:1034C800AC0080302C02031D6B2A97302A020318A7
:1034D800712A22000D138D17832A20002B08803AA9
:1034E800AC0080302C02031D7B2AFB302A02031813
:1034F800802A22000D13822A22000D178D136400E2
:103508000800031A8A2A2300CC01CC0AAD31B92558
:103518009A31AC3194249A312C30F3000130F40004
:10352800AC31FE249A3164008C31F1249A312200A6
:103538002F08031DA12A0D178D172C30F300013019
:10354800F400AC31FE249A316400053022006D0687
:10355800031DB12AEF01EF0AC12A06306D06031DCB
:10356800B72A0230BC2A07306D06031DC12A043071
:103578002300DA005A082200EF0005306C06031D0C
:10358800C82AEE01EE0AD82A06306C06031DCE2A98
:103598000230D32A07306C06031DD82A04302300D2
:1035A800DA005A082200EE002C30F3000130F40053
:1035B800AC31FE249A3164002C30F3000130F40061
:1035C800AC31FE249A3164002C30F3000130F40051
:1035D800AC31FE249A3164002C30F3000130F40041
:1035E800AC31FE249A3164002C30F3000130F40031
:1035F800AC31FE249A316400FF30AC31C0249A31DA
:10360800DA005A08FA00FE30AC31C0249A31DA00E8
:103618005A082200BC00FD30AC31C0249A31DA00CF
:103628005A082200BB00FC30AC31C0249A31DA00C1
:10363800DB015A08DB00DA015A082200CB0023001C
:103648005B082200CC00FB30AC31C0249A31DA0090
:10365800DB015A082200CB0723005B082200CC3D7F
:103668003C08A231BA229A317A08AE3136269A310C
:1036780022003B08AC31AE249A3123004C03031DD1
:10368800482B2200AC01AC0A863147269A31953185
:1036980097259A3164008A3146229A319D31152541
:1036A8009A314E2B64002200B701A401A501B8018C
:1036B8009831F2209B317908803A2100EF00803060
:1036C8006F02031D692B6E307802031C0800AC31B1
:1036D800E8249B3122003008031D752B953197256E
:1036E8009B313230F3000030F400AC31FE249B31C2
:1036F8009831F2209B3179082200CC007808CB0061
:103708007908803A2100EF0080306F02031D8E2B6C
:103718006E307802031C080023002308803A210039
:10372800EF0080306F02031D9C2B6F3023002202B4
:10373800031CAD2B23002308803A2100EF007908F1
:10374800803A6F02031DAB2B780823002202031C6A
:10375800080090313E209B3178087904031DB72B6F
:10376800AC31E82408007908803A2100EF00803065
:103778006F02031DC12B78307802031C0800053046
:1037880022006C06031DCC2B05306D0603190800BA
:1037980006306D02031CDB2B6F082100EF006F0859
:1037A8002200B900EF01EF0A98312C209B317908EB
:1037B800803A2100EF0080306F02031DE52B78303E
:1037C8007802031C0800063022006C02031CF72B49
:1037D8006E082100EF006F082200BA00EE01EE0A21
:1037E800A7313B279B31053022006D06031DFF2BB7
:1037F800EF01EF0A0F2C06306D06031D052C023071
:103808000A2C07306D06031D0F2C04302100EF0031
:103818006F082200EF0005306C06031D162CEE0120
:10382800EE0A262C06306C06031D1C2C0230212CB7
:1038380007306C06031D262C04302100EF006F08AA
:103848002200EE00640008002A08803AAB008030AD
:103858002B02031D312C513029020318372C20006C
:10386800A901AA01080020002A08803AAB0080308C
:103878002B02031D412CAC3029020318492CF430CB
:103888002000A9070030AA3D080020002A08803A35
:10389800AB0081302B02031D532C49302902031839
:1038A8005B2CFE302000A9070030AA3D080020004C
:1038B8002A08803AAB0082302B02031D652C473062
:1038C800290203186D2C18302000A9070130AA3DE1
:1038D800080020002A08803AAB0083302B02031D21
:1038E800772C3530290203187F2C29302000A907AE
:1038F8000130AA3D080020002A08803AAB00843035
:103908002B02031D892C4D3029020318912C3630C7
:103918002000A9070130AA3D080020002A08803AA3
:10392800AB0088302B02031D9B2C8630290203181C
:10393800A32CAE302000A9070130AA3D08002000C2
:103948002A08803AAB008C302B02031DAD2CFB30CB
:1039580029020318B52CE4302000A9070130AA3D3C
:10396800080020002A08803AAB0092302B02031D81
:10397800BF2C103029020318C72C12302000A907C9
:103988000230AA3D080020002A08803AAB00963091
:103998002B02031DD12CE73029020318D92C8830BB
:1039A8002000A9070230AA3D080020002A08803A12
:1039B800AB009B302B02031DE32CEB3029020318CC
:1039C800EB2CE7302000A9070230AA3D08002000B0
:1039D8002A08803AAB00A1302B02031DF52C3730A2
:1039E80029020318FD2C20302000A9070330AA3D26
:1039F800080020002A08803AAB00A9302B02031DDA
:103A0800072D0530290203180F2D48302000A9077B
:103A18000330AA3D08005C302000A9070330AA3D06
:103A28000800AC318C249D312200E8006808E900C8
:103A380072306906031D2D2DFA30F3000030F400B2
:103A4800AC31FE249D316400A43184249D312200D0
:103A5800AD01743069060319352D23005108031987
:103A68004F2DFA30F3000030F400AC31FE249D31C4
:103A780064002300D301D30AD301FA30F3000030E5
:103A8800F400AC31FE249D31A63186269D312200FA
:103A9800AD012300D101623022006906031D182EF2
:103AA800640022002D08031D962DAD01AD0A7A0889
:103AB800E80068082300D00022003C08E8006808F5
:103AC8002300CF0022003B08E80068082300CE004E
:103AD800FA01220033080319762DFF30E800680840
:103AE800BC00772DBC01BB01BB0A3C08A231BA223D
:103AF8009D317A08AE3136269D3122003B08AC3123
:103B0800AE249D3122002B08031D8D2D953197255C
:103B18009D3122002E08E80068082300CD0022000D
:103B2800AE01C42DAD01230050082200E80068084A
:103B3800FA0023004F082200E8006808BC002300B0
:103B48004E082200E8006808BB007A08AE31362625
:103B58009D3122003C08A231BA229D3122003B0847
:103B6800AC31AE249D3122002B08031DBE2D9531AA
:103B780097259D3123004D082200E8006808AE0013
:103B880004302F060319CC2D05302F06031DE42D14
:103B98002D08031DD12D0130D22D00302E0503191B
:103BA800D72D7030F12D2E08031DDC2D0130DD2DB1
:103BB80000302D050319E22D7030022E70300A2EC8
:103BC8002F080319172E2D08031DEC2D0130ED2D9C
:103BD80000302E050319F82D0830E8006808F300B6
:103BE800BE30F400B030102E2E08031DFD2D01301C
:103BF800FE2D00302D050319092E0830E80068084D
:103C0800F300C030F400B030102E0830E800680827
:103C1800F3000930F400B030F500F601F60A003080
:103C2800AF3110279D316400613022006906031D01
:103C380008002D08031D0800640022002E08031D3B
:103C4800282EAE01AE0A292EAE012E08E80068081B
:103C58002000A4000230983104209D310430220055
:103C68002F0603193B2E05302F06031D532E2D0852
:103C7800031D402E0130412E00302E050319462E1B
:103C88007030602E2E08031D4B2E01304C2E003054
:103C98002D050319512E7030712E7030792E2F0892
:103CA8000319852E2D08031D5B2E01305C2E003074
:103CB8002E050319672E0830E8006808F300BE30A7
:103CC800F400B0307F2E2E08031D6C2E01306D2EAF
:103CD80000302D050319782E0830E8006808F30035
:103CE800C030F400B0307F2E0830E8006808F300D8
:103CF8000930F400B030F500F601F60A0030AF31B3
:103D080010276400080041088039C2004208CB002F
:103D18004135C2004208D200C01B52145208031990
:103D2800A32E520A031DA02E0030C1000030C0008F
:103D38000030BF000030BE00C017C101AB2E0030FC
:103D4800C1000030C0000030BF000030BE003D0898
:103D58008039C2004208CB063D35C2004208D30074
:103D6800BC1B531453080319C72E530A031DC42E32
:103D78000030BD000030BC000030BB000030BA008D
:103D8800BC17BD01CF2E0030BD000030BC00003094
:103D9800BB000030BA003D083C043B043A04031D54
:103DA800EE2E0030C1000030C0000030BF000030EF
:103DB800BE008030C0047F30C1044B08C2004208F6
:103DC800C1044108BD004008BC003F08BB003E08D4
:103DD800BA0008005208031DFA2E0030BD0000305A
:103DE800BC000030BB000030BA0008005208C20016
:103DF800C3014308C50053084202C400031CC5039D
:103E080044087F3ECC000030453DCD004108CA0043
:103E18004008C9003F08C8003E08C7000030C1007C
:103E28000030C0000030BF000030BE000030D100BC
:103E38000030D0000030CF000030CE00D3011A305F
:103E4800530203185F2F53080319412F0130C73558
:103E5800C80DC90DCA0D890B2B2F0130BE35BF0DFA
:103E6800C00DC10D890B322FD11B3E140130CE3548
:103E7800CF0DD00DD10D890B3B2F3D084A02031DF4
:103E88004F2F3C084902031D4F2F3B084802031DD2
:103E98004F2F3A084702031C5A2F51173A08C702F6
:103EA8003B08C83B3C08C93B3D08CA3B0130C2003F
:103EB8004208D307232F4A08490448044704031D2E
:103EC8004E14C01B7C2F0130BE35BF0DC00DC10D77
:103ED800890B682FD11B3E140130CE35CF0DD00D84
:103EE800D10D890B712FFF30CC07FF30CD3D652FE9
:103EF800D301D11F952FFF304E05C200FF304F056B
:103F0800C300FF305005C4007F305105C500450887
:103F180044044304420403193E18932F952FD301F8
:103F2800D30A53080319BE2F0130BE070030BF3D26
:103F38000030C03D0030C13D411CBE2F3E08C200CC
:103F48003F08C3004008C4004108C5000130C6004E
:103F5800C537C40CC30CC20CC60BAC2F4508C10036
:103F68004408C0004308BF004208BE000130CC0727
:103F78000030CD3D4D08803AC20080304202031D1A
:103F8800C72FFF304C02031CD62FFF302000CC0077
:103F98000030CD000030C1000030C0000030BF004C
:103FA8000030BE0020004D08803AC2008030420236
:103FB800031DE02F01304C020318EE2F2000CC0126
:103FC800CD010030C1000030C0000030BF0000301B
:103FD800BE00CB0120004C08C2004208D200521C8F
:103FE800F72FC017FB2F7F30C2004208C00552369A
:103FF800C2004208C100E12E813022009700171F3D
:1040080003280130AD318425A0317408AD00730850
:10401800AC0003302D02E93003192C0203181C28C8
:104028002200B60120002D08AB002C08AA000800C9
:10403800823022009700171F1F280130AD318425D8
:10404800A0317408AD007308AC0003302D02E930CC
:1040580003192C02031838282200B60120002C3539
:10406800AA002D0DAB000800833022009700171F0F
:104078003B280130AD318425A0317408AD007308A8
:10408800AC0003302D02E93003192C02031C502820
:104098002200B601B60A52282200B60120002D08D7
:1040A800F6002C08F500F535F60DF535F60D750812
:1040B800AA007608AB0008000310340D350DB600D1
:1040C8003608BC003C08031D72280030B5000030DB
:1040D800B4000030B3000030B20008003208B60067
:1040E8003308B7003408B8003508B9001F30B936AE
:1040F800B80CB70CB60C890B7B283608BA003A08FE
:10410800BB00B417FF30B205FF30B305FF30B4056C
:104118000030B5059630BC02BC1FA5283C08803A83
:10412800973E031C69280130B536B40CB30CB20CA9
:10413800890B98280130B6003608BC070319B62841
:10414800972820303C02031869283C080319B62830
:104158000130B235B30DB40DB50D890BAD28013062
:10416800BC02A9283B0803190800B209B309B4091D
:10417800B509B20A0319B30A0319B40A0319B50A2F
:1041880008000D302000A0000030A100A20132304C
:104198002100ED006D082000A300A4019031052046
:1041A800A031003A03190729FA30F3000030F4006F
:1041B800AC31FE24A031640022003B08031DE7282F
:1041C800BB01BB0AE828BB013B08AC31AE24A031D7
:1041D80095319725A0310D302000A0000030A100B6
:1041E800A20132302100ED006D082000A300A401D7
:1041F80090310520A031003A031907298A31462257
:10420800A0316400EF280D30A0000030A10002307A
:104218002100ED006D082000A20032302100EE00E0
:104228006E082000A300A40190310520A031003AB7
:10423800031D640022002D08031D242901302529AF
:1042480000302100ED000D302000A0000030A1005A
:10425800A201A20A32302100EE006E082000A3005D
:10426800A40190310520A03121006D050319080033
:104278006400080000302005F30000302105F40038
:1042880080302205F5007F302305F6007608750496
:1042980074047304031D58290030A3000030A200E1
:1042A8000030A1000030A00000302405F3000030E9
:1042B8002505F40080302605F5007F302705F60037
:1042C8007608750474047304031D72290030A7006E
:1042D8000030A6000030A5000030A400A31F8C29E0
:1042E8000030F3000030F4000030F5008030F600B4
:1042F8002008F3022108F43B2208F53B2308F63B8B
:104308007608A3007508A2007408A1007308A0002D
:10431800A71FA6290030F3000030F4000030F50094
:104328008030F6002408F3022508F43B2608F53B04
:104338002708F63B7608A7007508A6007408A500AC
:104348007308A4008030A3068030A706270823023C
:10435800031D080026082202031D08002508210263
:10436800031D08002408200208002608A7002708C3
:10437800A900A8012030A70029088600013087007D
:10438800270881000130A7002708A9070130A700E6
:104398002708A80706302802031CBE292608053E60
:1043A800A7002708A900A51B072A0A30F300003038
:1043B800F4002508F6002408F500AD31F125A131F7
:1043C8007308303EA70029088600013087002708B7
:1043D80081000130A9020A30F3000030F4002508FA
:1043E800F6002408F500AF31AE27A1317408A50006
:1043F8007308A4000130A7002708A807240825048B
:1044080003190800D9290A30F3000030F400250800
:10441800F6002408F500AD31F125A1317308303CD0
:10442800A70029088600013087002708810001308D
:10443800A9020A30F3000030F4002508F600240829
:10444800F500AF31AE27A1317408A5007308A400A8
:1044580024082504031D072A2D30A70029088600F3
:1044680001308700270881000800B101AB1F492AE5
:10447800A809A909AA09AB09A80A0319A90A0319CD
:10448800AA0A0319AB0AB101B10AAF1F5A2AAC092B
:10449800AD09AE09AF09AC0A0319AD0A0319AE0A92
:1044A8000319AF0A0130F7007708B1060030B500EC
:1044B8000030B4000030B3000030B2002B082A04EA
:1044C800290428040319A32AB001B00AAB1B782ACF
:1044D8000130A835A90DAA0DAB0D890B6D2A013045
:1044E800F7007708B0076A2A0130B235B30DB40D6A
:1044F800B50D890B792A2B082F02031D8D2A2A084E
:104508002E02031D8D2A29082D02031D8D2A280835
:104518002C02031C982A2808AC022908AD3B2A085B
:10452800AE3B2B08AF3B32140130AB36AA0CA90CBA
:10453800A80C890B992A0130B002031D782A31088A
:104548000319B12AB209B309B409B509B20A0319A2
:10455800B30A0319B40A0319B50A3508AB003408BD
:10456800AA003308A9003208A80008002000A30008
:104578002308A2002208A40022003308031DF82AF9
:104588002000241CCA2A22008D15CC2A22008D1155
:104598002000A41CD22A22000C15D42A22000C11B7
:1045A8002000241DDA2A22000D16DC2A22000D1212
:1045B8002000A41DE22A22008C15E42A22008C1176
:1045C8002000241EEA2A22008D16EC2A22008D12D1
:1045D8002000A41EF22A22008C16F42A22008C1233
:1045E8002000241B402B432B03102000241C031401
:1045F800031C012B22008D15032B22008D110310A3
:104608002000A41C0314031C0C2B22000C150E2BD9
:1046180022000C1103102000241D0314031C172B67
:1046280022000D16192B22000D1203102000A41DC4
:104638000314031C222B22008C15242B22008C111E
:1046480003102000241E0314031C2D2B22008D169A
:104658002F2B22008D1203102000A41E0314031C0C
:10466800382B22008C163A2B22008C1203102000C3
:10467800241F0314031C432B22000C16452B220075
:104688000C1223082000A100220022082000A0000C
:10469800AC3185240800B4003408031DAF1F642B17
:1046A8002C09B6002D09B7002E09B8002F09B9004A
:1046B800B60A0319B70A0319B80A0319B90A6C2B01
:1046C8002F08B9002E08B8002D08B7002C08B6002E
:1046D8002F082E042D042C04031D7B2B0030AF0063
:1046E8000030AE000030AD000030AC00080096305D
:1046F800B0003008B500FE3039050319A22B01308F
:10470800B0003008B5070130B936B80CB70CB60C94
:10471800890B882B7F2B0130B0003008B50701309A
:10472800B6070030B73D0030B83D0030B93D013024
:10473800B936B80CB70CB60C890B9C2BFF30390571
:104748000319B42B8F2B02303502031CB62B013012
:10475800B5020130B635B70DB80DB90D890BAE2BC2
:10476800B81FA72B3518C02BFF30B605FF30B7058B
:104778007F30B805FF30B9050310B50C3508B00017
:10478800B101B201B3011830B035B10DB20DB30D9E
:10479800890BC82B3008B6043108B7043208B804AE
:1047A8003308B9043408031DAF1FDB2BB9173908C8
:1047B800AF003808AE003708AD003608AC00080076
:1047C80003302200CF004F08D300FA017A08AE3137
:1047D8003626A33103302200CF004F08BA009831A3
:1047E800F220A33178087904031908001430F30083
:1047F8000030F4007908F6007808F500AF31AE27EC
:10480800A331780873072200D1007908743DD200DB
:104818000330CF004F08D4006E08CF004F08F300D4
:104828005408AC319D24A331AE313626A3319831DA
:10483800F220A33178087904031908007908803A2E
:104848002200CF005208803A4F02031D2D2C510838
:1048580078020318802C1430F3000030F400790833
:10486800F6007808F500AF31AE27A3317808730752
:104878002200D1007908743DD2006E08CF004F089D
:10488800F3005408AC319D24A3312200D000500815
:10489800FA005308CF004F08BA007908803ACF00D1
:1048A80080304F02031D5A2C78307802031C802C6C
:1048B80022005308CF004F08D4073408031D6D2C7D
:1048C80009305406031D6D2C0830CF004F08D40062
:1048D8007C2C3408031D7C2C11305406031D7C2CC1
:1048E8001030CF004F08D4000430CF004F08D30059
:1048F80020305402031C102C7A08AE3136260800EA
:10490800AC31E824A4312200BB01BB0A3B08AC311E
:10491800AE24A4312000A401FF3098310420A43132
:104928002000A401FE3098310420A4312000A40105
:10493800A40AFD3098310420A4312000A401FC30E1
:1049480098310420A4312000A401FB3098310420C0
:10495800A43195319725A4312200AB012300D3015E
:10496800D301D30AF801F9012200A601A701A00189
:10497800A10104302F060319C52C05302F06031D8D
:10498800F12C10302100ED006D08F3003C30F400EC
:10499800B030F5000830EE006E08F6000230AF3196
:1049A8001027A43164005830F3000230F400AC3111
:1049B800FE24A43110302100ED006D08F3004E30C4
:1049C800F400B030F5000830EE006E08F600023052
:1049D800AF311027A43164001C2D2F0803191A2D9C
:1049E800F3013C30F400B030F50008302100ED0050
:1049F8006D08F6000130AF311027A431640058303B
:104A0800F3000230F400AC31FE24A431F3014E303F
:104A1800F400B030F50008302100ED006D08F60014
:104A28000130AF311027A43164001C2D0D178D17EC
:104A380010302300D4002730D5001030D60027309E
:104A4800D7008A3146220800043022002F060319B5
:104A5800312D05302F06031D332D0A30372D2F0831
:104A68000319472D03302000B3003308F300163034
:104A7800F400B030F5000930B4003408F600003016
:104A8800AF311027A5316400F430F3000130F40091
:104A9800AC31FE24A5316400F430F3000130F40099
:104AA800AC31FE24A5316400F430F3000130F40089
:104AB800AC31FE24A5316400F430F3000130F40079
:104AC800AC31FE24A5316400043022002F060319FE
:104AD800712D05302F06031D732D0A30772D2F08F1
:104AE8000319872D03302000B3003308F300013089
:104AF800F400B030F5000930B4003408F600003096
:104B0800AF311027A531AC31E824A5312200BB0113
:104B1800BB0A3B08AC31AE24A5317A082000B300AB
:104B28003308A400FF3098310420A53122003C0846
:104B38002000B3003308A400FE3098310420A531CA
:104B480022003B082000B3003308A400FD30983150
:104B58000420A531043022002F060319B72D053093
:104B68002F06031DB92D7030BD2D2F080319CB2D2D
:104B780008302000B3003308F300C430F400B0302C
:104B8800F500F601F60A0030AF311027A5312200F2
:104B9800AC01AC0A86314726080003302200D50054
:104BA8005508DB00D9010330D5005508B90003309A
:104BB800D5005508DA001430F3000030F400790805
:104BC800F6007808F500AF31AE27A53178087307ED
:104BD8002200D7007908743DD800DC016F08D500A1
:104BE8005508F3005C08AC319D24A531A231BA22E6
:104BF800A531A331E423A5319831F220A5317808F5
:104C08007904031908007908803A2200D500580869
:104C1800803A5502031D122E5708780203186D2E8C
:104C28001430F3000030F4007908F6007808F50035
:104C3800AF31AE27A531780873072200D70079086D
:104C4800743DD8006F08D5005508F3005C08AC31F6
:104C58009D24A5312200D6005608BC007A08D5004C
:104C68005508D9005B08D5005508B9003A08D500A1
:104C78005508DA007908803AD50080305502031DBE
:104C8800472E78307802031C6D2E22005B08D50071
:104C98005508DC073508031D5A2E09305C06031D2C
:104CA8005A2E0830D5005508DC00692E3508031D3A
:104CB800692E11305C06031D692E1030D500550889
:104CC800DC000430D5005508DB0020305C02031CF2
:104CD800F22D22005908D5005508FA003C08A231E7
:104CE800BA22A5317A08AE313626A53122005A08F3
:104CF800D5005508BA000A30F3000030F400AC3192
:104D0800FE2408006400043022002F060319902EA8
:104D180005302F06031DA12E4030E6006608F3007B
:104D2800AD30F400B030F5000430E7006708F60055
:104D38000230AF311027A631B72E2F080319B52E30
:104D48000430E6006608F300AD30F400B030F5003A
:104D58000430E7006708F6000130AF311027A631AC
:104D6800B72E0D178D179B315623A63122002F0819
:104D7800031DE02E7908803AE60080306602031DA4
:104D8800C72E973078020318CD2E22000D138D17E9
:104D9800E82E7908803A2200E60080306602031D7A
:104DA800D72EFB3078020318DC2E22000D13DE2EDE
:104DB80022000D178D13E82E2B08031D3008031D44
:104DC800E82E95319725A6317A082200E600660874
:104DD8002000A400FF3098310420A63122003C08AE
:104DE800E60066082000A400FE3098310420A631B1
:104DF80022003B08E60066082000A400FD30983138
:104E08000420A6310030F3000130F40022004C08E1
:104E1800F6004B08F500AF31AE27A6317308220023
:104E2800E60066082000A400FC3098310420A63172
:104E380022004B08E60066082000A400FB309831E9
:104E48000420A6311030D4002730D5001030D60009
:104E58002730D7008A31462279082200A100780835
:104E6800A0002300D301D301D30A64000800220064
:104E78006E08CF004F08F3003A08AC319D24A731E3
:104E88002200D0005008D6007A085607CF004F08F5
:104E9800D4006E08CF00D0010530CF35D00D890B76
:104EA800512F4F08FF3ED100FF30503DD20052082D
:104EB800803AD30080305302031D642F54085102F6
:104EC8000318732F22006E08CF000430CF35FF3E41
:104ED800031D6A2F4F35FF3ED0005008D4007A08D2
:104EE8002200560203187E2F56087A02CF004F0878
:104EF800D5007F2FD5015508CF004F08FA007A0852
:104F0800AE313626A7319831F220A73178087904D6
:104F18000319080079082200D8007808D700550836
:104F28006E07CF004F08D90059085402031CFC2F04
:104F38005908AE313626A7319831F220A7317808C2
:104F48007904031908007908803A2200CF0058082C
:104F5800803A4F02031DB22F57087802031CBE2F58
:104F68000A30F3000030F400AC31FE24A731983148
:104F7800F220A7317908803A2200CF005808803AF9
:104F88004F02031DC92F57087802031CD52F0A307A
:104F9800F3000030F400AC31FE24A7319831F22040
:104FA800A7317908803A2200CF005808803A4F028A
:104FB800031DE02F570878020318FC2F79082200F8
:104FC800D8007808D7005908CF004F08FA007908A8
:104FD800803ACF0080304F02031DF42F78307802DA
:104FE800031CFC2F22006E08CF004F08D907982F0A
:084FF8007A08AE3136260800EC
:1058E600640080010131890B742C0034FE00120023
:1058F6001E00FE0B7A2C0034103427341034273463
:10590600203401342108F4002008F300AC31FE24D1
:10591600080023004808F3007308F400C80174085F
:105926000800F83021009505951195128B160B1776
:105936008B170800F600F501761CA52C7308F400F9
:105946007408F5070310F30D0310F60C7608031D13
:105956009F2C750808002000A200220C2200031CC0
:105966000E1003180E1423082000A100220022089E
:105976002000A000AC3185240800F6006400230056
:105986009518C12C7608F300F40173089100740889
:1059960092003F30F50075089505151413080800A8
:1059A600F7000F3077052000A0000A30A10021087B
:1059B600F3007708A2000430A236890BDF2C2208F8
:1059C600AC319D242000200708002200BC01FA010A
:1059D6003C08A231BA22AC317A08AE313626AC3157
:1059E600220023082000A100220022082000A00097
:1059F600AC31852408007408F7007308F6006400CB
:105A060076087704031908000630F5003030890B54
:105A16000A2DF50B0A2D003264000130F602003023
:105A2600F73B032DA701A801231C1D2D2508A70759
:105A36002608A83D0130A535A60D890B1E2D01307F
:105A4600A436A30C890B232D23082404031D172D2C
:105A56002808A4002708A3000800003400340034F6
:105A66000034003400340034003400340034003490
:105A76000034003400340034003409340034003477
:105A86000034003400340034003400340034003470
:105A96000034003400340034003400342034203420
:105AA6000D340A340030F6000030F5000030F40002
:105AB6000030F300201C672D2408F3072508F43D69
:105AC6002608F53D2708F63D0130A435A50DA60D9F
:105AD600A70D890B682D0130A336A20CA10CA00CD2
:105AE600890B6F2D2308220421042004031D5D2D3C
:105AF6007608A3007508A2007408A1007308A00028
:105B060008002000A5002508A000A00DA00D21007A
:105B16001D08200020068339200621009D009D14C3
:105B26000630890B942D003221009D18972D1B08F5
:105B36002000A0002008A80021001C082000A000CA
:105B46002008A9002808A000A1012908A200A30195
:105B56002208A300A20120082207A6002108233D4F
:105B6600A7002708F4002608F300080064002100B7
:105B7600971217169711171597106400C030230057
:105B86008C050C148C14C0308D05220091139313D0
:105B96007A302100990020008C018D018E01C030E1
:105BA60022008C008D018E01033021008C0007300D
:105BB6008D008E010D158D10803103201E149E144C
:105BC600813022009700A33021009E001D149513FA
:105BD60024000D148D140D158B130800A101F61F5A
:105BE600FB2DF509F609F50A0319F60AA101A10A22
:105BF600F41F022EF309F409F30A0319F40A7308D1
:105C060074040319292EA001A00AF41B142E0130D6
:105C1600F335F40D890B0B2E0130F7007708A0073A
:105C2600082E74087602031D1A2E73087502031CCB
:105C3600202E7308F5027408F63B0130F436F30C97
:105C4600890B212E0130A002031D142E21080319F1
:105C5600312EF509F609F50A0319F60A7608F40055
:105C66007508F30008002000A3002308A2002208FC
:105C7600A400241C412E22008E17432E22008E13D0
:105C86002000A41C492E22008E154B2E22008E11B8
:105C96002000241D512E22000E17532E22000E1313
:105CA6002000A41D592E22000E155B2E22000E1177
:105CB6002000241E612E22008E16632E22008E12D4
:105CC6002000A41E692E22008E146B2E22008E1038
:105CD6002000241F712E22000E16732E22000E1293
:105CE60023082000A100220022082000A000AC31D9
:105CF6008524080022002908031DAB2E23004A082C
:105D060003190800253022002A020318922E8D104E
:105D16002A08203E8600023087000108932EFF30B5
:105D2600F00070082300C900A52E2300491C9E2EF2
:105D360022008D14A02E22008D1003102300C90C02
:105D4600A52E8D140130F00070082200A907080066
:105D560009302902031C982E0B302902031CA42E9D
:105D6600A9010130F0007008AA0725302A06031D94
:105D7600BF2E2300CA0108008A302A02031C08002D
:105D8600AA010800813022009700171FC82E003094
:105D9600AD318425AE317408AD007308AC00033014
:105DA6002D02E93003192C020318DE2E2D08AB0054
:105DB6002C08AA000800823022009700171FE12E47
:105DC6000030AD318425AE317408AD007308AC00E7
:105DD60003302D02E93003192C020318F72E2C3557
:105DE600AA002D0DAB000800833022009700171F74
:105DF600FA2E0030AD3184257408AD007308AC006E
:105E06002D08F6002C08F500F535F60DF535F60DDE
:105E16007508AA007608AB0008002000A300230836
:105E2600A0000330A035FF3E031D152F2035730754
:105E3600A1002108A50010302502031C262F0130E1
:105E4600A0002008A507A401760824020318592FEC
:105E560010302506031D3C2F0930A0002508203EE2
:105E6600860002308700200881000130A00020084B
:105E7600A5077508A1007408A0002408200784005F
:105E860021080318210A85000008A2002508203EE3
:105E9600860002308700220881000130A000200819
:105EA600A5070130A0002008A407272F2300CA0158
:105EB600CA0A080000300D190130F200992F720845
:105EC600031D0800C601C701C70A08000310220007
:105ED600A80C7208F0000630F035FF3E031D6F2F48
:105EE6007035F1007108A8040130F0007008230035
:105EF600C60708304606031D08000230F000700889
:105F0600C70008007203031D972F22002808F0001F
:105F160070082300C80022002808F000700824003A
:105F2600C2002300CA01CA0AC701080023004708A5
:105F3600F000F1017108003A0319A22FAD2F700885
:105F4600003A0319622F013A0319692F033A03191C
:105F5600852FAD2F08002000A101F41FB92FF309EA
:105F6600F409F30A0319F40AA101A10AF61FC42FC2
:105F7600F509F609F50A0319F60A0130F70077085C
:105F8600A106A201A301730874040319F32FA0014B
:105F9600A00AF41BD82F0130F335F40D890BCF2F4F
:105FA6000130F7007708A007CC2F0130A235A30DEA
:105FB600890BD92F74087602031DE32F7308750227
:105FC600031CEA2F7308F5027408F63B221401300D
:105FD600F436F30C890BEB2F0130A002031DD82FEA
:105FE60021080319FB2FA209A309A20A0319A30A70
:105FF6002308F4002208F30008002034203420345B
:10600600203420342034203420342034203400340A
:10601600463457342034763465347234203433347D
:106026002E3432340034543445345334543420340A
:106036004D344F34443445340034453458345434A4
:10604600203462346F34613472346434003453342F
:1060560057343D3420342034203420342034003466
:106066005334573452343D342034203420342034D1
:1060760000345234453453344534543420342034B7
:10608600203400344534463446343D3420342034FC
:106096003034253400345334573452343D3430349C
:1060A6002E343034303400346234793420344E3473
:1060B600373444344434433400344F34563445344E
:1060C60052344C344F344134443400345034573411
:1060D60052343D3420342034303457340034413483
:1060E6004E3454343D342034203430345734003464
:1060F6005034573452343D3430342E3430345734DF
:10610600003441344E3454343D3430342E3430343B
:10611600573400344534463446343D342034303424
:10612600253400344134543455342D34313430342C
:106136003034003441344E343D342034203430344D
:106146005734003441344E343D3430342E343034F8
:1061560057340034543455344E34453400344334C3
:106166003D3400344C343D3400347034463400340D
:106176007534483400342E3400345F3400346334CC
:0E61860000346C34003470340034753400344E
:020000040001F9
:08000000FF3FFF3FFF3FFF3F00
:04000E00FC3FFF3F75
:10E00000780001000100150013000100000000006D
:10E0100002000000070000000700000001000000EF
:10E020000000500001001000020020000400500019
:10E03000100000002200000045000000FF00FF006B
:10E040000000100000002200000047000100000056
:10E05000020020000400700010000000FF00FF001C
:10E06000000010000000010000000000FF00FF00A1
:10E07000FF00FF00FF00FF00FF00FF00FF00FF00A8
:10E08000FF00FF00FF00FF00FF00FF00FF00FF0098
:10E09000FF00FF00FF00FF00FF00FF00FF00FF0088
:10E0A000FF00FF00FF00FF00FF00FF00FF00FF0078
:10E0B000FF00FF00FF00FF00FF00FF00FF00FF0068
:10E0C000FF00FF00FF00FF00FF00FF00FF00FF0058
:10E0D000FF00FF00FF00FF00FF00FF00FF00FF0048
:10E0E000FF00FF00FF00FF00FF00FF00FF00FF0038
:10E0F000FF00FF00FF00FF00FF00FF00FF00FF0028
:10E10000FF00FF00FF00FF00FF00FF00FF00FF0017
:10E11000FF00FF00FF00FF00FF00FF00FF00FF0007
:10E12000FF00FF00FF00FF00FF00FF00FF00FF00F7
:10E13000FF00FF00FF00FF00FF00FF00FF00FF00E7
:10E14000FF00FF00FF00FF00FF00FF00FF00FF00D7
:10E15000FF00FF00FF00FF00FF00FF00FF00FF00C7
:10E16000FF00FF00FF00FF00FF00FF00FF00FF00B7
:10E17000FF00FF00FF00FF00FF00FF00FF00FF00A7
:10E18000FF00FF00FF00FF00FF00FF00FF00FF0097
:10E19000FF00FF00FF00FF00FF00FF00FF00FF0087
:10E1A000FF00FF00FF00FF00FF00FF00FF00FF0077
:10E1B000FF00FF00FF00FF00FF00FF00FF00FF0067
:10E1C000FF00FF00FF00FF00FF00FF00FF00FF0057
:10E1D000FF00FF00FF00FF00FF00FF00FF00FF0047
:10E1E000FF00FF00FF00FF00FF00FF00FF00FF0037
:10E1F000FF00FF00FF000000000001000000000021
:00000001FF
